{
  "contractName": "TrankersToken",
  "abi": [
    {
      "inputs": [],
      "stateMutability": "nonpayable",
      "type": "constructor"
    },
    {
      "anonymous": false,
      "inputs": [
        {
          "indexed": true,
          "internalType": "address",
          "name": "owner",
          "type": "address"
        },
        {
          "indexed": true,
          "internalType": "address",
          "name": "spender",
          "type": "address"
        },
        {
          "indexed": false,
          "internalType": "uint256",
          "name": "value",
          "type": "uint256"
        }
      ],
      "name": "Approval",
      "type": "event"
    },
    {
      "anonymous": false,
      "inputs": [
        {
          "indexed": true,
          "internalType": "address",
          "name": "previousOwner",
          "type": "address"
        },
        {
          "indexed": true,
          "internalType": "address",
          "name": "newOwner",
          "type": "address"
        }
      ],
      "name": "OwnershipTransferred",
      "type": "event"
    },
    {
      "anonymous": false,
      "inputs": [
        {
          "indexed": true,
          "internalType": "address",
          "name": "from",
          "type": "address"
        },
        {
          "indexed": true,
          "internalType": "address",
          "name": "to",
          "type": "address"
        },
        {
          "indexed": false,
          "internalType": "uint256",
          "name": "value",
          "type": "uint256"
        }
      ],
      "name": "Transfer",
      "type": "event"
    },
    {
      "inputs": [
        {
          "internalType": "address",
          "name": "owner",
          "type": "address"
        },
        {
          "internalType": "address",
          "name": "spender",
          "type": "address"
        }
      ],
      "name": "allowance",
      "outputs": [
        {
          "internalType": "uint256",
          "name": "",
          "type": "uint256"
        }
      ],
      "stateMutability": "view",
      "type": "function"
    },
    {
      "inputs": [
        {
          "internalType": "address",
          "name": "spender",
          "type": "address"
        },
        {
          "internalType": "uint256",
          "name": "amount",
          "type": "uint256"
        }
      ],
      "name": "approve",
      "outputs": [
        {
          "internalType": "bool",
          "name": "",
          "type": "bool"
        }
      ],
      "stateMutability": "nonpayable",
      "type": "function"
    },
    {
      "inputs": [
        {
          "internalType": "address",
          "name": "account",
          "type": "address"
        }
      ],
      "name": "balanceOf",
      "outputs": [
        {
          "internalType": "uint256",
          "name": "",
          "type": "uint256"
        }
      ],
      "stateMutability": "view",
      "type": "function"
    },
    {
      "inputs": [
        {
          "internalType": "address",
          "name": "spender",
          "type": "address"
        },
        {
          "internalType": "uint256",
          "name": "subtractedValue",
          "type": "uint256"
        }
      ],
      "name": "decreaseAllowance",
      "outputs": [
        {
          "internalType": "bool",
          "name": "",
          "type": "bool"
        }
      ],
      "stateMutability": "nonpayable",
      "type": "function"
    },
    {
      "inputs": [
        {
          "internalType": "address",
          "name": "spender",
          "type": "address"
        },
        {
          "internalType": "uint256",
          "name": "addedValue",
          "type": "uint256"
        }
      ],
      "name": "increaseAllowance",
      "outputs": [
        {
          "internalType": "bool",
          "name": "",
          "type": "bool"
        }
      ],
      "stateMutability": "nonpayable",
      "type": "function"
    },
    {
      "inputs": [],
      "name": "inventory",
      "outputs": [
        {
          "internalType": "address",
          "name": "",
          "type": "address"
        }
      ],
      "stateMutability": "view",
      "type": "function"
    },
    {
      "inputs": [],
      "name": "name",
      "outputs": [
        {
          "internalType": "string",
          "name": "",
          "type": "string"
        }
      ],
      "stateMutability": "view",
      "type": "function"
    },
    {
      "inputs": [],
      "name": "owner",
      "outputs": [
        {
          "internalType": "address",
          "name": "",
          "type": "address"
        }
      ],
      "stateMutability": "view",
      "type": "function"
    },
    {
      "inputs": [],
      "name": "renounceOwnership",
      "outputs": [],
      "stateMutability": "nonpayable",
      "type": "function"
    },
    {
      "inputs": [],
      "name": "symbol",
      "outputs": [
        {
          "internalType": "string",
          "name": "",
          "type": "string"
        }
      ],
      "stateMutability": "view",
      "type": "function"
    },
    {
      "inputs": [],
      "name": "totalSupply",
      "outputs": [
        {
          "internalType": "uint256",
          "name": "",
          "type": "uint256"
        }
      ],
      "stateMutability": "view",
      "type": "function"
    },
    {
      "inputs": [
        {
          "internalType": "address",
          "name": "to",
          "type": "address"
        },
        {
          "internalType": "uint256",
          "name": "amount",
          "type": "uint256"
        }
      ],
      "name": "transfer",
      "outputs": [
        {
          "internalType": "bool",
          "name": "",
          "type": "bool"
        }
      ],
      "stateMutability": "nonpayable",
      "type": "function"
    },
    {
      "inputs": [
        {
          "internalType": "address",
          "name": "from",
          "type": "address"
        },
        {
          "internalType": "address",
          "name": "to",
          "type": "address"
        },
        {
          "internalType": "uint256",
          "name": "amount",
          "type": "uint256"
        }
      ],
      "name": "transferFrom",
      "outputs": [
        {
          "internalType": "bool",
          "name": "",
          "type": "bool"
        }
      ],
      "stateMutability": "nonpayable",
      "type": "function"
    },
    {
      "inputs": [
        {
          "internalType": "address",
          "name": "newOwner",
          "type": "address"
        }
      ],
      "name": "transferOwnership",
      "outputs": [],
      "stateMutability": "nonpayable",
      "type": "function"
    },
    {
      "inputs": [],
      "name": "decimals",
      "outputs": [
        {
          "internalType": "uint8",
          "name": "",
          "type": "uint8"
        }
      ],
      "stateMutability": "view",
      "type": "function"
    },
    {
      "inputs": [
        {
          "internalType": "address",
          "name": "to_",
          "type": "address"
        },
        {
          "internalType": "uint256",
          "name": "amount",
          "type": "uint256"
        }
      ],
      "name": "mint",
      "outputs": [],
      "stateMutability": "nonpayable",
      "type": "function"
    },
    {
      "inputs": [
        {
          "internalType": "address",
          "name": "account",
          "type": "address"
        },
        {
          "internalType": "uint256",
          "name": "amount",
          "type": "uint256"
        }
      ],
      "name": "burnFrom",
      "outputs": [],
      "stateMutability": "nonpayable",
      "type": "function"
    }
  ],
  "bytecode": "0x60806040523480156200001157600080fd5b506040518060400160405280600d81526020017f5472616e6b657273546f6b656e000000000000000000000000000000000000008152506040518060400160405280600381526020017f54525400000000000000000000000000000000000000000000000000000000008152508160039080519060200190620000969291906200033c565b508060049080519060200190620000af9291906200033c565b505050620000d2620000c6620000ec60201b60201c565b620000f460201b60201c565b620000e633614e20620001ba60201b60201c565b62000597565b600033905090565b6000600560009054906101000a900473ffffffffffffffffffffffffffffffffffffffff16905081600560006101000a81548173ffffffffffffffffffffffffffffffffffffffff021916908373ffffffffffffffffffffffffffffffffffffffff1602179055508173ffffffffffffffffffffffffffffffffffffffff168173ffffffffffffffffffffffffffffffffffffffff167f8be0079c531659141344cd1fd0a4f28419497f9722a3daafe3b4186f6b6457e060405160405180910390a35050565b600073ffffffffffffffffffffffffffffffffffffffff168273ffffffffffffffffffffffffffffffffffffffff16036200022c576040517f08c379a000000000000000000000000000000000000000000000000000000000815260040162000223906200044d565b60405180910390fd5b62000240600083836200033260201b60201c565b8060026000828254620002549190620004a8565b92505081905550806000808473ffffffffffffffffffffffffffffffffffffffff1673ffffffffffffffffffffffffffffffffffffffff1681526020019081526020016000206000828254620002ab9190620004a8565b925050819055508173ffffffffffffffffffffffffffffffffffffffff16600073ffffffffffffffffffffffffffffffffffffffff167fddf252ad1be2c89b69c2b068fc378daa952ba7f163c4a11628f55a4df523b3ef8360405162000312919062000516565b60405180910390a36200032e600083836200033760201b60201c565b5050565b505050565b505050565b8280546200034a9062000562565b90600052602060002090601f0160209004810192826200036e5760008555620003ba565b82601f106200038957805160ff1916838001178555620003ba565b82800160010185558215620003ba579182015b82811115620003b95782518255916020019190600101906200039c565b5b509050620003c99190620003cd565b5090565b5b80821115620003e8576000816000905550600101620003ce565b5090565b600082825260208201905092915050565b7f45524332303a206d696e7420746f20746865207a65726f206164647265737300600082015250565b600062000435601f83620003ec565b91506200044282620003fd565b602082019050919050565b60006020820190508181036000830152620004688162000426565b9050919050565b6000819050919050565b7f4e487b7100000000000000000000000000000000000000000000000000000000600052601160045260246000fd5b6000620004b5826200046f565b9150620004c2836200046f565b9250827fffffffffffffffffffffffffffffffffffffffffffffffffffffffffffffffff03821115620004fa57620004f962000479565b5b828201905092915050565b62000510816200046f565b82525050565b60006020820190506200052d600083018462000505565b92915050565b7f4e487b7100000000000000000000000000000000000000000000000000000000600052602260045260246000fd5b600060028204905060018216806200057b57607f821691505b60208210810362000591576200059062000533565b5b50919050565b611d5580620005a76000396000f3fe608060405234801561001057600080fd5b506004361061010b5760003560e01c806370a08231116100a257806395d89b411161007157806395d89b41146102a8578063a457c2d7146102c6578063a9059cbb146102f6578063dd62ed3e14610326578063f2fde38b146103565761010b565b806370a0823114610234578063715018a61461026457806379cc67901461026e5780638da5cb5b1461028a5761010b565b806323b872dd116100de57806323b872dd1461019a578063313ce567146101ca57806339509351146101e857806340c10f19146102185761010b565b806306fdde0314610110578063095ea7b31461012e57806315d52a5c1461015e57806318160ddd1461017c575b600080fd5b610118610372565b604051610125919061124c565b60405180910390f35b61014860048036038101906101439190611307565b610404565b6040516101559190611362565b60405180910390f35b610166610427565b604051610173919061138c565b60405180910390f35b61018461044d565b60405161019191906113b6565b60405180910390f35b6101b460048036038101906101af91906113d1565b610457565b6040516101c19190611362565b60405180910390f35b6101d2610486565b6040516101df9190611440565b60405180910390f35b61020260048036038101906101fd9190611307565b61048b565b60405161020f9190611362565b60405180910390f35b610232600480360381019061022d9190611307565b6104c2565b005b61024e6004803603810190610249919061145b565b61058a565b60405161025b91906113b6565b60405180910390f35b61026c6105d2565b005b61028860048036038101906102839190611307565b6105e6565b005b6102926105f4565b60405161029f919061138c565b60405180910390f35b6102b061061e565b6040516102bd919061124c565b60405180910390f35b6102e060048036038101906102db9190611307565b6106b0565b6040516102ed9190611362565b60405180910390f35b610310600480360381019061030b9190611307565b610727565b60405161031d9190611362565b60405180910390f35b610340600480360381019061033b9190611488565b61074a565b60405161034d91906113b6565b60405180910390f35b610370600480360381019061036b919061145b565b6107d1565b005b606060038054610381906114f7565b80601f01602080910402602001604051908101604052809291908181526020018280546103ad906114f7565b80156103fa5780601f106103cf576101008083540402835291602001916103fa565b820191906000526020600020905b8154815290600101906020018083116103dd57829003601f168201915b5050505050905090565b60008061040f610854565b905061041c81858561085c565b600191505092915050565b600660009054906101000a900473ffffffffffffffffffffffffffffffffffffffff1681565b6000600254905090565b600080610462610854565b905061046f858285610a25565b61047a858585610ab1565b60019150509392505050565b600090565b600080610496610854565b90506104b78185856104a8858961074a565b6104b29190611557565b61085c565b600191505092915050565b6104ca610d30565b600073ffffffffffffffffffffffffffffffffffffffff168273ffffffffffffffffffffffffffffffffffffffff1603610539576040517f08c379a0000000000000000000000000000000000000000000000000000000008152600401610530906115f9565b60405180910390fd5b6000811161057c576040517f08c379a000000000000000000000000000000000000000000000000000000000815260040161057390611665565b60405180910390fd5b6105868282610dae565b5050565b60008060008373ffffffffffffffffffffffffffffffffffffffff1673ffffffffffffffffffffffffffffffffffffffff168152602001908152602001600020549050919050565b6105da610d30565b6105e46000610f0d565b565b6105f08282610fd3565b5050565b6000600560009054906101000a900473ffffffffffffffffffffffffffffffffffffffff16905090565b60606004805461062d906114f7565b80601f0160208091040260200160405190810160405280929190818152602001828054610659906114f7565b80156106a65780601f1061067b576101008083540402835291602001916106a6565b820191906000526020600020905b81548152906001019060200180831161068957829003601f168201915b5050505050905090565b6000806106bb610854565b905060006106c9828661074a565b90508381101561070e576040517f08c379a0000000000000000000000000000000000000000000000000000000008152600401610705906116f7565b60405180910390fd5b61071b828686840361085c565b60019250505092915050565b600080610732610854565b905061073f818585610ab1565b600191505092915050565b6000600160008473ffffffffffffffffffffffffffffffffffffffff1673ffffffffffffffffffffffffffffffffffffffff16815260200190815260200160002060008373ffffffffffffffffffffffffffffffffffffffff1673ffffffffffffffffffffffffffffffffffffffff16815260200190815260200160002054905092915050565b6107d9610d30565b600073ffffffffffffffffffffffffffffffffffffffff168173ffffffffffffffffffffffffffffffffffffffff1603610848576040517f08c379a000000000000000000000000000000000000000000000000000000000815260040161083f90611789565b60405180910390fd5b61085181610f0d565b50565b600033905090565b600073ffffffffffffffffffffffffffffffffffffffff168373ffffffffffffffffffffffffffffffffffffffff16036108cb576040517f08c379a00000000000000000000000000000000000000000000000000000000081526004016108c29061181b565b60405180910390fd5b600073ffffffffffffffffffffffffffffffffffffffff168273ffffffffffffffffffffffffffffffffffffffff160361093a576040517f08c379a0000000000000000000000000000000000000000000000000000000008152600401610931906118ad565b60405180910390fd5b80600160008573ffffffffffffffffffffffffffffffffffffffff1673ffffffffffffffffffffffffffffffffffffffff16815260200190815260200160002060008473ffffffffffffffffffffffffffffffffffffffff1673ffffffffffffffffffffffffffffffffffffffff168152602001908152602001600020819055508173ffffffffffffffffffffffffffffffffffffffff168373ffffffffffffffffffffffffffffffffffffffff167f8c5be1e5ebec7d5bd14f71427d1e84f3dd0314c0f7b2291e5b200ac8c7c3b92583604051610a1891906113b6565b60405180910390a3505050565b6000610a31848461074a565b90507fffffffffffffffffffffffffffffffffffffffffffffffffffffffffffffffff8114610aab5781811015610a9d576040517f08c379a0000000000000000000000000000000000000000000000000000000008152600401610a9490611919565b60405180910390fd5b610aaa848484840361085c565b5b50505050565b600073ffffffffffffffffffffffffffffffffffffffff168373ffffffffffffffffffffffffffffffffffffffff1603610b20576040517f08c379a0000000000000000000000000000000000000000000000000000000008152600401610b17906119ab565b60405180910390fd5b600073ffffffffffffffffffffffffffffffffffffffff168273ffffffffffffffffffffffffffffffffffffffff1603610b8f576040517f08c379a0000000000000000000000000000000000000000000000000000000008152600401610b8690611a3d565b60405180910390fd5b610b9a8383836111a9565b60008060008573ffffffffffffffffffffffffffffffffffffffff1673ffffffffffffffffffffffffffffffffffffffff16815260200190815260200160002054905081811015610c20576040517f08c379a0000000000000000000000000000000000000000000000000000000008152600401610c1790611acf565b60405180910390fd5b8181036000808673ffffffffffffffffffffffffffffffffffffffff1673ffffffffffffffffffffffffffffffffffffffff16815260200190815260200160002081905550816000808573ffffffffffffffffffffffffffffffffffffffff1673ffffffffffffffffffffffffffffffffffffffff1681526020019081526020016000206000828254610cb39190611557565b925050819055508273ffffffffffffffffffffffffffffffffffffffff168473ffffffffffffffffffffffffffffffffffffffff167fddf252ad1be2c89b69c2b068fc378daa952ba7f163c4a11628f55a4df523b3ef84604051610d1791906113b6565b60405180910390a3610d2a8484846111ae565b50505050565b610d38610854565b73ffffffffffffffffffffffffffffffffffffffff16610d566105f4565b73ffffffffffffffffffffffffffffffffffffffff1614610dac576040517f08c379a0000000000000000000000000000000000000000000000000000000008152600401610da390611b3b565b60405180910390fd5b565b600073ffffffffffffffffffffffffffffffffffffffff168273ffffffffffffffffffffffffffffffffffffffff1603610e1d576040517f08c379a0000000000000000000000000000000000000000000000000000000008152600401610e1490611ba7565b60405180910390fd5b610e29600083836111a9565b8060026000828254610e3b9190611557565b92505081905550806000808473ffffffffffffffffffffffffffffffffffffffff1673ffffffffffffffffffffffffffffffffffffffff1681526020019081526020016000206000828254610e909190611557565b925050819055508173ffffffffffffffffffffffffffffffffffffffff16600073ffffffffffffffffffffffffffffffffffffffff167fddf252ad1be2c89b69c2b068fc378daa952ba7f163c4a11628f55a4df523b3ef83604051610ef591906113b6565b60405180910390a3610f09600083836111ae565b5050565b6000600560009054906101000a900473ffffffffffffffffffffffffffffffffffffffff16905081600560006101000a81548173ffffffffffffffffffffffffffffffffffffffff021916908373ffffffffffffffffffffffffffffffffffffffff1602179055508173ffffffffffffffffffffffffffffffffffffffff168173ffffffffffffffffffffffffffffffffffffffff167f8be0079c531659141344cd1fd0a4f28419497f9722a3daafe3b4186f6b6457e060405160405180910390a35050565b600073ffffffffffffffffffffffffffffffffffffffff168273ffffffffffffffffffffffffffffffffffffffff1603611042576040517f08c379a000000000000000000000000000000000000000000000000000000000815260040161103990611c39565b60405180910390fd5b61104e826000836111a9565b60008060008473ffffffffffffffffffffffffffffffffffffffff1673ffffffffffffffffffffffffffffffffffffffff168152602001908152602001600020549050818110156110d4576040517f08c379a00000000000000000000000000000000000000000000000000000000081526004016110cb90611ccb565b60405180910390fd5b8181036000808573ffffffffffffffffffffffffffffffffffffffff1673ffffffffffffffffffffffffffffffffffffffff16815260200190815260200160002081905550816002600082825461112b9190611ceb565b92505081905550600073ffffffffffffffffffffffffffffffffffffffff168373ffffffffffffffffffffffffffffffffffffffff167fddf252ad1be2c89b69c2b068fc378daa952ba7f163c4a11628f55a4df523b3ef8460405161119091906113b6565b60405180910390a36111a4836000846111ae565b505050565b505050565b505050565b600081519050919050565b600082825260208201905092915050565b60005b838110156111ed5780820151818401526020810190506111d2565b838111156111fc576000848401525b50505050565b6000601f19601f8301169050919050565b600061121e826111b3565b61122881856111be565b93506112388185602086016111cf565b61124181611202565b840191505092915050565b600060208201905081810360008301526112668184611213565b905092915050565b600080fd5b600073ffffffffffffffffffffffffffffffffffffffff82169050919050565b600061129e82611273565b9050919050565b6112ae81611293565b81146112b957600080fd5b50565b6000813590506112cb816112a5565b92915050565b6000819050919050565b6112e4816112d1565b81146112ef57600080fd5b50565b600081359050611301816112db565b92915050565b6000806040838503121561131e5761131d61126e565b5b600061132c858286016112bc565b925050602061133d858286016112f2565b9150509250929050565b60008115159050919050565b61135c81611347565b82525050565b60006020820190506113776000830184611353565b92915050565b61138681611293565b82525050565b60006020820190506113a1600083018461137d565b92915050565b6113b0816112d1565b82525050565b60006020820190506113cb60008301846113a7565b92915050565b6000806000606084860312156113ea576113e961126e565b5b60006113f8868287016112bc565b9350506020611409868287016112bc565b925050604061141a868287016112f2565b9150509250925092565b600060ff82169050919050565b61143a81611424565b82525050565b60006020820190506114556000830184611431565b92915050565b6000602082840312156114715761147061126e565b5b600061147f848285016112bc565b91505092915050565b6000806040838503121561149f5761149e61126e565b5b60006114ad858286016112bc565b92505060206114be858286016112bc565b9150509250929050565b7f4e487b7100000000000000000000000000000000000000000000000000000000600052602260045260246000fd5b6000600282049050600182168061150f57607f821691505b602082108103611522576115216114c8565b5b50919050565b7f4e487b7100000000000000000000000000000000000000000000000000000000600052601160045260246000fd5b6000611562826112d1565b915061156d836112d1565b9250827fffffffffffffffffffffffffffffffffffffffffffffffffffffffffffffffff038211156115a2576115a1611528565b5b828201905092915050565b7f746f206164647265737320697320696e76616c69640000000000000000000000600082015250565b60006115e36015836111be565b91506115ee826115ad565b602082019050919050565b60006020820190508181036000830152611612816115d6565b9050919050565b7f616d6f756e7420697320696e76616c6964000000000000000000000000000000600082015250565b600061164f6011836111be565b915061165a82611619565b602082019050919050565b6000602082019050818103600083015261167e81611642565b9050919050565b7f45524332303a2064656372656173656420616c6c6f77616e63652062656c6f7760008201527f207a65726f000000000000000000000000000000000000000000000000000000602082015250565b60006116e16025836111be565b91506116ec82611685565b604082019050919050565b60006020820190508181036000830152611710816116d4565b9050919050565b7f4f776e61626c653a206e6577206f776e657220697320746865207a65726f206160008201527f6464726573730000000000000000000000000000000000000000000000000000602082015250565b60006117736026836111be565b915061177e82611717565b604082019050919050565b600060208201905081810360008301526117a281611766565b9050919050565b7f45524332303a20617070726f76652066726f6d20746865207a65726f2061646460008201527f7265737300000000000000000000000000000000000000000000000000000000602082015250565b60006118056024836111be565b9150611810826117a9565b604082019050919050565b60006020820190508181036000830152611834816117f8565b9050919050565b7f45524332303a20617070726f766520746f20746865207a65726f20616464726560008201527f7373000000000000000000000000000000000000000000000000000000000000602082015250565b60006118976022836111be565b91506118a28261183b565b604082019050919050565b600060208201905081810360008301526118c68161188a565b9050919050565b7f45524332303a20696e73756666696369656e7420616c6c6f77616e6365000000600082015250565b6000611903601d836111be565b915061190e826118cd565b602082019050919050565b60006020820190508181036000830152611932816118f6565b9050919050565b7f45524332303a207472616e736665722066726f6d20746865207a65726f20616460008201527f6472657373000000000000000000000000000000000000000000000000000000602082015250565b60006119956025836111be565b91506119a082611939565b604082019050919050565b600060208201905081810360008301526119c481611988565b9050919050565b7f45524332303a207472616e7366657220746f20746865207a65726f206164647260008201527f6573730000000000000000000000000000000000000000000000000000000000602082015250565b6000611a276023836111be565b9150611a32826119cb565b604082019050919050565b60006020820190508181036000830152611a5681611a1a565b9050919050565b7f45524332303a207472616e7366657220616d6f756e742065786365656473206260008201527f616c616e63650000000000000000000000000000000000000000000000000000602082015250565b6000611ab96026836111be565b9150611ac482611a5d565b604082019050919050565b60006020820190508181036000830152611ae881611aac565b9050919050565b7f4f776e61626c653a2063616c6c6572206973206e6f7420746865206f776e6572600082015250565b6000611b256020836111be565b9150611b3082611aef565b602082019050919050565b60006020820190508181036000830152611b5481611b18565b9050919050565b7f45524332303a206d696e7420746f20746865207a65726f206164647265737300600082015250565b6000611b91601f836111be565b9150611b9c82611b5b565b602082019050919050565b60006020820190508181036000830152611bc081611b84565b9050919050565b7f45524332303a206275726e2066726f6d20746865207a65726f2061646472657360008201527f7300000000000000000000000000000000000000000000000000000000000000602082015250565b6000611c236021836111be565b9150611c2e82611bc7565b604082019050919050565b60006020820190508181036000830152611c5281611c16565b9050919050565b7f45524332303a206275726e20616d6f756e7420657863656564732062616c616e60008201527f6365000000000000000000000000000000000000000000000000000000000000602082015250565b6000611cb56022836111be565b9150611cc082611c59565b604082019050919050565b60006020820190508181036000830152611ce481611ca8565b9050919050565b6000611cf6826112d1565b9150611d01836112d1565b925082821015611d1457611d13611528565b5b82820390509291505056fea26469706673582212201835374548f81f14bc4056c1881d01be55f9ad01d1ff4d6dc464f8b4f2eb6d3664736f6c634300080d0033",
  "immutableReferences": {},
  "source": "// SPDX-License-Identifier: MIT\npragma solidity >=0.4.25 <0.9.0;\n\nimport \"@openzeppelin/contracts/token/ERC20/ERC20.sol\";\nimport \"@openzeppelin/contracts/access/Ownable.sol\";\n\ncontract TrankersToken is ERC20, Ownable {\n    address public inventory;\n\n    constructor() ERC20(\"TrankersToken\", \"TRT\") {\n        _mint(msg.sender, 20000);\n    }\n\n    function decimals() public view virtual override returns (uint8) {\n        return 0;\n    }\n\n    function mint(address to_, uint256 amount) public onlyOwner {\n        require(to_ != address(0), \"to address is invalid\");\n        require(amount > 0, \"amount is invalid\");\n        _mint(to_, amount);\n    }\n\n    function burnFrom(address account, uint256 amount) public virtual {\n        _burn(account, amount);\n    }\n}",
  "sourcePath": "/Users/maadhav/Documents/web3Projects/trankers/contracts/TrankersToken.sol",
  "compiler": {
    "name": "solc",
    "version": "0.8.13+commit.abaa5c0e.Emscripten.clang"
  },
  "schemaVersion": "3.4.8",
  "updatedAt": "2022-09-22T13:59:55.974Z",
  "devdoc": {
    "kind": "dev",
    "methods": {
      "allowance(address,address)": {
        "details": "See {IERC20-allowance}."
      },
      "approve(address,uint256)": {
        "details": "See {IERC20-approve}. NOTE: If `amount` is the maximum `uint256`, the allowance is not updated on `transferFrom`. This is semantically equivalent to an infinite approval. Requirements: - `spender` cannot be the zero address."
      },
      "balanceOf(address)": {
        "details": "See {IERC20-balanceOf}."
      },
      "decimals()": {
        "details": "Returns the number of decimals used to get its user representation. For example, if `decimals` equals `2`, a balance of `505` tokens should be displayed to a user as `5.05` (`505 / 10 ** 2`). Tokens usually opt for a value of 18, imitating the relationship between Ether and Wei. This is the value {ERC20} uses, unless this function is overridden; NOTE: This information is only used for _display_ purposes: it in no way affects any of the arithmetic of the contract, including {IERC20-balanceOf} and {IERC20-transfer}."
      },
      "decreaseAllowance(address,uint256)": {
        "details": "Atomically decreases the allowance granted to `spender` by the caller. This is an alternative to {approve} that can be used as a mitigation for problems described in {IERC20-approve}. Emits an {Approval} event indicating the updated allowance. Requirements: - `spender` cannot be the zero address. - `spender` must have allowance for the caller of at least `subtractedValue`."
      },
      "increaseAllowance(address,uint256)": {
        "details": "Atomically increases the allowance granted to `spender` by the caller. This is an alternative to {approve} that can be used as a mitigation for problems described in {IERC20-approve}. Emits an {Approval} event indicating the updated allowance. Requirements: - `spender` cannot be the zero address."
      },
      "name()": {
        "details": "Returns the name of the token."
      },
      "owner()": {
        "details": "Returns the address of the current owner."
      },
      "renounceOwnership()": {
        "details": "Leaves the contract without owner. It will not be possible to call `onlyOwner` functions anymore. Can only be called by the current owner. NOTE: Renouncing ownership will leave the contract without an owner, thereby removing any functionality that is only available to the owner."
      },
      "symbol()": {
        "details": "Returns the symbol of the token, usually a shorter version of the name."
      },
      "totalSupply()": {
        "details": "See {IERC20-totalSupply}."
      },
      "transfer(address,uint256)": {
        "details": "See {IERC20-transfer}. Requirements: - `to` cannot be the zero address. - the caller must have a balance of at least `amount`."
      },
      "transferFrom(address,address,uint256)": {
        "details": "See {IERC20-transferFrom}. Emits an {Approval} event indicating the updated allowance. This is not required by the EIP. See the note at the beginning of {ERC20}. NOTE: Does not update the allowance if the current allowance is the maximum `uint256`. Requirements: - `from` and `to` cannot be the zero address. - `from` must have a balance of at least `amount`. - the caller must have allowance for ``from``'s tokens of at least `amount`."
      },
      "transferOwnership(address)": {
        "details": "Transfers ownership of the contract to a new account (`newOwner`). Can only be called by the current owner."
      }
    },
    "version": 1
  },
  "userdoc": {
    "kind": "user",
    "methods": {},
    "version": 1
  }
}