{
  "contractName": "TrankersInventory",
  "abi": [
    {
      "inputs": [
        {
          "internalType": "address",
          "name": "token_",
          "type": "address"
        }
      ],
      "stateMutability": "nonpayable",
      "type": "constructor"
    },
    {
      "anonymous": false,
      "inputs": [
        {
          "indexed": true,
          "internalType": "address",
          "name": "account",
          "type": "address"
        },
        {
          "indexed": true,
          "internalType": "address",
          "name": "operator",
          "type": "address"
        },
        {
          "indexed": false,
          "internalType": "bool",
          "name": "approved",
          "type": "bool"
        }
      ],
      "name": "ApprovalForAll",
      "type": "event"
    },
    {
      "anonymous": false,
      "inputs": [
        {
          "indexed": true,
          "internalType": "address",
          "name": "previousOwner",
          "type": "address"
        },
        {
          "indexed": true,
          "internalType": "address",
          "name": "newOwner",
          "type": "address"
        }
      ],
      "name": "OwnershipTransferred",
      "type": "event"
    },
    {
      "anonymous": false,
      "inputs": [
        {
          "indexed": true,
          "internalType": "address",
          "name": "operator",
          "type": "address"
        },
        {
          "indexed": true,
          "internalType": "address",
          "name": "from",
          "type": "address"
        },
        {
          "indexed": true,
          "internalType": "address",
          "name": "to",
          "type": "address"
        },
        {
          "indexed": false,
          "internalType": "uint256[]",
          "name": "ids",
          "type": "uint256[]"
        },
        {
          "indexed": false,
          "internalType": "uint256[]",
          "name": "values",
          "type": "uint256[]"
        }
      ],
      "name": "TransferBatch",
      "type": "event"
    },
    {
      "anonymous": false,
      "inputs": [
        {
          "indexed": true,
          "internalType": "address",
          "name": "operator",
          "type": "address"
        },
        {
          "indexed": true,
          "internalType": "address",
          "name": "from",
          "type": "address"
        },
        {
          "indexed": true,
          "internalType": "address",
          "name": "to",
          "type": "address"
        },
        {
          "indexed": false,
          "internalType": "uint256",
          "name": "id",
          "type": "uint256"
        },
        {
          "indexed": false,
          "internalType": "uint256",
          "name": "value",
          "type": "uint256"
        }
      ],
      "name": "TransferSingle",
      "type": "event"
    },
    {
      "anonymous": false,
      "inputs": [
        {
          "indexed": false,
          "internalType": "string",
          "name": "value",
          "type": "string"
        },
        {
          "indexed": true,
          "internalType": "uint256",
          "name": "id",
          "type": "uint256"
        }
      ],
      "name": "URI",
      "type": "event"
    },
    {
      "inputs": [
        {
          "internalType": "address",
          "name": "account",
          "type": "address"
        },
        {
          "internalType": "uint256",
          "name": "id",
          "type": "uint256"
        }
      ],
      "name": "balanceOf",
      "outputs": [
        {
          "internalType": "uint256",
          "name": "",
          "type": "uint256"
        }
      ],
      "stateMutability": "view",
      "type": "function"
    },
    {
      "inputs": [
        {
          "internalType": "address[]",
          "name": "accounts",
          "type": "address[]"
        },
        {
          "internalType": "uint256[]",
          "name": "ids",
          "type": "uint256[]"
        }
      ],
      "name": "balanceOfBatch",
      "outputs": [
        {
          "internalType": "uint256[]",
          "name": "",
          "type": "uint256[]"
        }
      ],
      "stateMutability": "view",
      "type": "function"
    },
    {
      "inputs": [
        {
          "internalType": "address",
          "name": "account",
          "type": "address"
        },
        {
          "internalType": "address",
          "name": "operator",
          "type": "address"
        }
      ],
      "name": "isApprovedForAll",
      "outputs": [
        {
          "internalType": "bool",
          "name": "",
          "type": "bool"
        }
      ],
      "stateMutability": "view",
      "type": "function"
    },
    {
      "inputs": [],
      "name": "owner",
      "outputs": [
        {
          "internalType": "address",
          "name": "",
          "type": "address"
        }
      ],
      "stateMutability": "view",
      "type": "function"
    },
    {
      "inputs": [],
      "name": "renounceOwnership",
      "outputs": [],
      "stateMutability": "nonpayable",
      "type": "function"
    },
    {
      "inputs": [
        {
          "internalType": "address",
          "name": "from",
          "type": "address"
        },
        {
          "internalType": "address",
          "name": "to",
          "type": "address"
        },
        {
          "internalType": "uint256[]",
          "name": "ids",
          "type": "uint256[]"
        },
        {
          "internalType": "uint256[]",
          "name": "amounts",
          "type": "uint256[]"
        },
        {
          "internalType": "bytes",
          "name": "data",
          "type": "bytes"
        }
      ],
      "name": "safeBatchTransferFrom",
      "outputs": [],
      "stateMutability": "nonpayable",
      "type": "function"
    },
    {
      "inputs": [
        {
          "internalType": "address",
          "name": "from",
          "type": "address"
        },
        {
          "internalType": "address",
          "name": "to",
          "type": "address"
        },
        {
          "internalType": "uint256",
          "name": "id",
          "type": "uint256"
        },
        {
          "internalType": "uint256",
          "name": "amount",
          "type": "uint256"
        },
        {
          "internalType": "bytes",
          "name": "data",
          "type": "bytes"
        }
      ],
      "name": "safeTransferFrom",
      "outputs": [],
      "stateMutability": "nonpayable",
      "type": "function"
    },
    {
      "inputs": [
        {
          "internalType": "address",
          "name": "operator",
          "type": "address"
        },
        {
          "internalType": "bool",
          "name": "approved",
          "type": "bool"
        }
      ],
      "name": "setApprovalForAll",
      "outputs": [],
      "stateMutability": "nonpayable",
      "type": "function"
    },
    {
      "inputs": [
        {
          "internalType": "bytes4",
          "name": "interfaceId",
          "type": "bytes4"
        }
      ],
      "name": "supportsInterface",
      "outputs": [
        {
          "internalType": "bool",
          "name": "",
          "type": "bool"
        }
      ],
      "stateMutability": "view",
      "type": "function"
    },
    {
      "inputs": [
        {
          "internalType": "address",
          "name": "newOwner",
          "type": "address"
        }
      ],
      "name": "transferOwnership",
      "outputs": [],
      "stateMutability": "nonpayable",
      "type": "function"
    },
    {
      "inputs": [
        {
          "internalType": "uint256",
          "name": "",
          "type": "uint256"
        }
      ],
      "name": "uri",
      "outputs": [
        {
          "internalType": "string",
          "name": "",
          "type": "string"
        }
      ],
      "stateMutability": "view",
      "type": "function"
    },
    {
      "inputs": [
        {
          "internalType": "address",
          "name": "token_",
          "type": "address"
        }
      ],
      "name": "updateToken",
      "outputs": [],
      "stateMutability": "nonpayable",
      "type": "function"
    },
    {
      "inputs": [
        {
          "internalType": "uint256",
          "name": "price",
          "type": "uint256"
        },
        {
          "internalType": "uint256",
          "name": "priceInSPT",
          "type": "uint256"
        }
      ],
      "name": "mint",
      "outputs": [],
      "stateMutability": "nonpayable",
      "type": "function"
    },
    {
      "inputs": [
        {
          "internalType": "uint256",
          "name": "token_id",
          "type": "uint256"
        }
      ],
      "name": "mint",
      "outputs": [],
      "stateMutability": "payable",
      "type": "function"
    },
    {
      "inputs": [
        {
          "internalType": "uint256",
          "name": "token_id",
          "type": "uint256"
        }
      ],
      "name": "getPrice",
      "outputs": [
        {
          "internalType": "uint256",
          "name": "",
          "type": "uint256"
        },
        {
          "internalType": "uint256",
          "name": "",
          "type": "uint256"
        }
      ],
      "stateMutability": "view",
      "type": "function"
    }
  ],
  "bytecode": "0x60806040523480156200001157600080fd5b5060405162003636380380620036368339818101604052810190620000379190620002cf565b6040518060800160405280604c8152602001620035ea604c91396200006281620000cb60201b60201c565b506200008362000077620000e760201b60201c565b620000ef60201b60201c565b80600760006101000a81548173ffffffffffffffffffffffffffffffffffffffff021916908373ffffffffffffffffffffffffffffffffffffffff1602179055505062000365565b8060029080519060200190620000e3929190620001b5565b5050565b600033905090565b6000600360009054906101000a900473ffffffffffffffffffffffffffffffffffffffff16905081600360006101000a81548173ffffffffffffffffffffffffffffffffffffffff021916908373ffffffffffffffffffffffffffffffffffffffff1602179055508173ffffffffffffffffffffffffffffffffffffffff168173ffffffffffffffffffffffffffffffffffffffff167f8be0079c531659141344cd1fd0a4f28419497f9722a3daafe3b4186f6b6457e060405160405180910390a35050565b828054620001c39062000330565b90600052602060002090601f016020900481019282620001e7576000855562000233565b82601f106200020257805160ff191683800117855562000233565b8280016001018555821562000233579182015b828111156200023257825182559160200191906001019062000215565b5b50905062000242919062000246565b5090565b5b808211156200026157600081600090555060010162000247565b5090565b600080fd5b600073ffffffffffffffffffffffffffffffffffffffff82169050919050565b600062000297826200026a565b9050919050565b620002a9816200028a565b8114620002b557600080fd5b50565b600081519050620002c9816200029e565b92915050565b600060208284031215620002e857620002e762000265565b5b6000620002f884828501620002b8565b91505092915050565b7f4e487b7100000000000000000000000000000000000000000000000000000000600052602260045260246000fd5b600060028204905060018216806200034957607f821691505b6020821081036200035f576200035e62000301565b5b50919050565b61327580620003756000396000f3fe6080604052600436106100e75760003560e01c80637ad3def21161008a578063e757223011610059578063e7572230146102e2578063e985e9c514610320578063f242432a1461035d578063f2fde38b14610386576100e7565b80637ad3def2146102495780638da5cb5b14610272578063a0712d681461029d578063a22cb465146102b9576100e7565b80631b2ef1ca116100c65780631b2ef1ca146101a35780632eb2c2d6146101cc5780634e1273f4146101f5578063715018a614610232576100e7565b8062fdd58e146100ec57806301ffc9a7146101295780630e89341c14610166575b600080fd5b3480156100f857600080fd5b50610113600480360381019061010e9190611d12565b6103af565b6040516101209190611d61565b60405180910390f35b34801561013557600080fd5b50610150600480360381019061014b9190611dd4565b610477565b60405161015d9190611e1c565b60405180910390f35b34801561017257600080fd5b5061018d60048036038101906101889190611e37565b610559565b60405161019a9190611efd565b60405180910390f35b3480156101af57600080fd5b506101ca60048036038101906101c59190611f1f565b6105ed565b005b3480156101d857600080fd5b506101f360048036038101906101ee919061215c565b61071c565b005b34801561020157600080fd5b5061021c600480360381019061021791906122ee565b6107bd565b6040516102299190612424565b60405180910390f35b34801561023e57600080fd5b506102476108d6565b005b34801561025557600080fd5b50610270600480360381019061026b9190612446565b6108ea565b005b34801561027e57600080fd5b50610287610936565b6040516102949190612482565b60405180910390f35b6102b760048036038101906102b29190611e37565b610960565b005b3480156102c557600080fd5b506102e060048036038101906102db91906124c9565b610b5b565b005b3480156102ee57600080fd5b5061030960048036038101906103049190611e37565b610b71565b604051610317929190612509565b60405180910390f35b34801561032c57600080fd5b5061034760048036038101906103429190612532565b610ba5565b6040516103549190611e1c565b60405180910390f35b34801561036957600080fd5b50610384600480360381019061037f9190612572565b610c39565b005b34801561039257600080fd5b506103ad60048036038101906103a89190612446565b610cda565b005b60008073ffffffffffffffffffffffffffffffffffffffff168373ffffffffffffffffffffffffffffffffffffffff160361041f576040517f08c379a00000000000000000000000000000000000000000000000000000000081526004016104169061267b565b60405180910390fd5b60008083815260200190815260200160002060008473ffffffffffffffffffffffffffffffffffffffff1673ffffffffffffffffffffffffffffffffffffffff16815260200190815260200160002054905092915050565b60007fd9b67a26000000000000000000000000000000000000000000000000000000007bffffffffffffffffffffffffffffffffffffffffffffffffffffffff1916827bffffffffffffffffffffffffffffffffffffffffffffffffffffffff1916148061054257507f0e89341c000000000000000000000000000000000000000000000000000000007bffffffffffffffffffffffffffffffffffffffffffffffffffffffff1916827bffffffffffffffffffffffffffffffffffffffffffffffffffffffff1916145b80610552575061055182610d5d565b5b9050919050565b606060028054610568906126ca565b80601f0160208091040260200160405190810160405280929190818152602001828054610594906126ca565b80156105e15780601f106105b6576101008083540402835291602001916105e1565b820191906000526020600020905b8154815290600101906020018083116105c457829003601f168201915b50505050509050919050565b6105f5610dc7565b600073ffffffffffffffffffffffffffffffffffffffff163373ffffffffffffffffffffffffffffffffffffffff1603610664576040517f08c379a000000000000000000000000000000000000000000000000000000000815260040161065b90612747565b60405180910390fd5b600082116106a7576040517f08c379a000000000000000000000000000000000000000000000000000000000815260040161069e906127b3565b60405180910390fd5b6106b16004610e45565b81600560006106c06004610e5b565b81526020019081526020016000208190555080600660006106e16004610e5b565b815260200190815260200160002081905550610718336107016004610e5b565b600160405180602001604052806000815250610e69565b5050565b610724611019565b73ffffffffffffffffffffffffffffffffffffffff168573ffffffffffffffffffffffffffffffffffffffff16148061076a575061076985610764611019565b610ba5565b5b6107a9576040517f08c379a00000000000000000000000000000000000000000000000000000000081526004016107a090612845565b60405180910390fd5b6107b68585858585611021565b5050505050565b60608151835114610803576040517f08c379a00000000000000000000000000000000000000000000000000000000081526004016107fa906128d7565b60405180910390fd5b6000835167ffffffffffffffff8111156108205761081f611f64565b5b60405190808252806020026020018201604052801561084e5781602001602082028036833780820191505090505b50905060005b84518110156108cb5761089b858281518110610873576108726128f7565b5b602002602001015185838151811061088e5761088d6128f7565b5b60200260200101516103af565b8282815181106108ae576108ad6128f7565b5b602002602001018181525050806108c490612955565b9050610854565b508091505092915050565b6108de610dc7565b6108e86000611342565b565b6108f2610dc7565b80600760006101000a81548173ffffffffffffffffffffffffffffffffffffffff021916908373ffffffffffffffffffffffffffffffffffffffff16021790555050565b6000600360009054906101000a900473ffffffffffffffffffffffffffffffffffffffff16905090565b600073ffffffffffffffffffffffffffffffffffffffff163373ffffffffffffffffffffffffffffffffffffffff16036109cf576040517f08c379a00000000000000000000000000000000000000000000000000000000081526004016109c690612747565b60405180910390fd5b60008111610a12576040517f08c379a0000000000000000000000000000000000000000000000000000000008152600401610a09906129e9565b60405180910390fd5b6000610a1e33836103af565b14610a5e576040517f08c379a0000000000000000000000000000000000000000000000000000000008152600401610a5590612a55565b60405180910390fd5b34600560008381526020019081526020016000205403610a9957610a943382600160405180602001604052806000815250610e69565b610b58565b600760009054906101000a900473ffffffffffffffffffffffffffffffffffffffff1673ffffffffffffffffffffffffffffffffffffffff166379cc67903360066000858152602001908152602001600020546040518363ffffffff1660e01b8152600401610b09929190612a75565b600060405180830381600087803b158015610b2357600080fd5b505af1158015610b37573d6000803e3d6000fd5b50505050610b573382600160405180602001604052806000815250610e69565b5b50565b610b6d610b66611019565b8383611408565b5050565b6000806005600084815260200190815260200160002054600660008581526020019081526020016000205491509150915091565b6000600160008473ffffffffffffffffffffffffffffffffffffffff1673ffffffffffffffffffffffffffffffffffffffff16815260200190815260200160002060008373ffffffffffffffffffffffffffffffffffffffff1673ffffffffffffffffffffffffffffffffffffffff16815260200190815260200160002060009054906101000a900460ff16905092915050565b610c41611019565b73ffffffffffffffffffffffffffffffffffffffff168573ffffffffffffffffffffffffffffffffffffffff161480610c875750610c8685610c81611019565b610ba5565b5b610cc6576040517f08c379a0000000000000000000000000000000000000000000000000000000008152600401610cbd90612845565b60405180910390fd5b610cd38585858585611574565b5050505050565b610ce2610dc7565b600073ffffffffffffffffffffffffffffffffffffffff168173ffffffffffffffffffffffffffffffffffffffff1603610d51576040517f08c379a0000000000000000000000000000000000000000000000000000000008152600401610d4890612b10565b60405180910390fd5b610d5a81611342565b50565b60007f01ffc9a7000000000000000000000000000000000000000000000000000000007bffffffffffffffffffffffffffffffffffffffffffffffffffffffff1916827bffffffffffffffffffffffffffffffffffffffffffffffffffffffff1916149050919050565b610dcf611019565b73ffffffffffffffffffffffffffffffffffffffff16610ded610936565b73ffffffffffffffffffffffffffffffffffffffff1614610e43576040517f08c379a0000000000000000000000000000000000000000000000000000000008152600401610e3a90612b7c565b60405180910390fd5b565b6001816000016000828254019250508190555050565b600081600001549050919050565b600073ffffffffffffffffffffffffffffffffffffffff168473ffffffffffffffffffffffffffffffffffffffff1603610ed8576040517f08c379a0000000000000000000000000000000000000000000000000000000008152600401610ecf90612c0e565b60405180910390fd5b6000610ee2611019565b90506000610eef8561180f565b90506000610efc8561180f565b9050610f0d83600089858589611889565b8460008088815260200190815260200160002060008973ffffffffffffffffffffffffffffffffffffffff1673ffffffffffffffffffffffffffffffffffffffff1681526020019081526020016000206000828254610f6c9190612c2e565b925050819055508673ffffffffffffffffffffffffffffffffffffffff16600073ffffffffffffffffffffffffffffffffffffffff168473ffffffffffffffffffffffffffffffffffffffff167fc3d58168c5ae7397731d063d5bbf3d657854427343f4c083240f7aacaa2d0f628989604051610fea929190612509565b60405180910390a461100183600089858589611891565b61101083600089898989611899565b50505050505050565b600033905090565b8151835114611065576040517f08c379a000000000000000000000000000000000000000000000000000000000815260040161105c90612cf6565b60405180910390fd5b600073ffffffffffffffffffffffffffffffffffffffff168473ffffffffffffffffffffffffffffffffffffffff16036110d4576040517f08c379a00000000000000000000000000000000000000000000000000000000081526004016110cb90612d88565b60405180910390fd5b60006110de611019565b90506110ee818787878787611889565b60005b845181101561129f57600085828151811061110f5761110e6128f7565b5b60200260200101519050600085838151811061112e5761112d6128f7565b5b60200260200101519050600080600084815260200190815260200160002060008b73ffffffffffffffffffffffffffffffffffffffff1673ffffffffffffffffffffffffffffffffffffffff168152602001908152602001600020549050818110156111cf576040517f08c379a00000000000000000000000000000000000000000000000000000000081526004016111c690612e1a565b60405180910390fd5b81810360008085815260200190815260200160002060008c73ffffffffffffffffffffffffffffffffffffffff1673ffffffffffffffffffffffffffffffffffffffff168152602001908152602001600020819055508160008085815260200190815260200160002060008b73ffffffffffffffffffffffffffffffffffffffff1673ffffffffffffffffffffffffffffffffffffffff16815260200190815260200160002060008282546112849190612c2e565b925050819055505050508061129890612955565b90506110f1565b508473ffffffffffffffffffffffffffffffffffffffff168673ffffffffffffffffffffffffffffffffffffffff168273ffffffffffffffffffffffffffffffffffffffff167f4a39dc06d4c0dbc64b70af90fd698a233a518aa5d07e595d983b8c0526c8f7fb8787604051611316929190612e3a565b60405180910390a461132c818787878787611891565b61133a818787878787611a70565b505050505050565b6000600360009054906101000a900473ffffffffffffffffffffffffffffffffffffffff16905081600360006101000a81548173ffffffffffffffffffffffffffffffffffffffff021916908373ffffffffffffffffffffffffffffffffffffffff1602179055508173ffffffffffffffffffffffffffffffffffffffff168173ffffffffffffffffffffffffffffffffffffffff167f8be0079c531659141344cd1fd0a4f28419497f9722a3daafe3b4186f6b6457e060405160405180910390a35050565b8173ffffffffffffffffffffffffffffffffffffffff168373ffffffffffffffffffffffffffffffffffffffff1603611476576040517f08c379a000000000000000000000000000000000000000000000000000000000815260040161146d90612ee3565b60405180910390fd5b80600160008573ffffffffffffffffffffffffffffffffffffffff1673ffffffffffffffffffffffffffffffffffffffff16815260200190815260200160002060008473ffffffffffffffffffffffffffffffffffffffff1673ffffffffffffffffffffffffffffffffffffffff16815260200190815260200160002060006101000a81548160ff0219169083151502179055508173ffffffffffffffffffffffffffffffffffffffff168373ffffffffffffffffffffffffffffffffffffffff167f17307eab39ab6107e8899845ad3d59bd9653f200f220920489ca2b5937696c31836040516115679190611e1c565b60405180910390a3505050565b600073ffffffffffffffffffffffffffffffffffffffff168473ffffffffffffffffffffffffffffffffffffffff16036115e3576040517f08c379a00000000000000000000000000000000000000000000000000000000081526004016115da90612d88565b60405180910390fd5b60006115ed611019565b905060006115fa8561180f565b905060006116078561180f565b9050611617838989858589611889565b600080600088815260200190815260200160002060008a73ffffffffffffffffffffffffffffffffffffffff1673ffffffffffffffffffffffffffffffffffffffff168152602001908152602001600020549050858110156116ae576040517f08c379a00000000000000000000000000000000000000000000000000000000081526004016116a590612e1a565b60405180910390fd5b85810360008089815260200190815260200160002060008b73ffffffffffffffffffffffffffffffffffffffff1673ffffffffffffffffffffffffffffffffffffffff168152602001908152602001600020819055508560008089815260200190815260200160002060008a73ffffffffffffffffffffffffffffffffffffffff1673ffffffffffffffffffffffffffffffffffffffff16815260200190815260200160002060008282546117639190612c2e565b925050819055508773ffffffffffffffffffffffffffffffffffffffff168973ffffffffffffffffffffffffffffffffffffffff168573ffffffffffffffffffffffffffffffffffffffff167fc3d58168c5ae7397731d063d5bbf3d657854427343f4c083240f7aacaa2d0f628a8a6040516117e0929190612509565b60405180910390a46117f6848a8a86868a611891565b611804848a8a8a8a8a611899565b505050505050505050565b60606000600167ffffffffffffffff81111561182e5761182d611f64565b5b60405190808252806020026020018201604052801561185c5781602001602082028036833780820191505090505b5090508281600081518110611874576118736128f7565b5b60200260200101818152505080915050919050565b505050505050565b505050505050565b6118b88473ffffffffffffffffffffffffffffffffffffffff16611c47565b15611a68578373ffffffffffffffffffffffffffffffffffffffff1663f23a6e6187878686866040518663ffffffff1660e01b81526004016118fe959493929190612f58565b6020604051808303816000875af192505050801561193a57506040513d601f19601f820116820180604052508101906119379190612fc7565b60015b6119df57611946613001565b806308c379a0036119a2575061195a613023565b8061196557506119a4565b806040517f08c379a00000000000000000000000000000000000000000000000000000000081526004016119999190611efd565b60405180910390fd5b505b6040517f08c379a00000000000000000000000000000000000000000000000000000000081526004016119d690613125565b60405180910390fd5b63f23a6e6160e01b7bffffffffffffffffffffffffffffffffffffffffffffffffffffffff1916817bffffffffffffffffffffffffffffffffffffffffffffffffffffffff191614611a66576040517f08c379a0000000000000000000000000000000000000000000000000000000008152600401611a5d906131b7565b60405180910390fd5b505b505050505050565b611a8f8473ffffffffffffffffffffffffffffffffffffffff16611c47565b15611c3f578373ffffffffffffffffffffffffffffffffffffffff1663bc197c8187878686866040518663ffffffff1660e01b8152600401611ad59594939291906131d7565b6020604051808303816000875af1925050508015611b1157506040513d601f19601f82011682018060405250810190611b0e9190612fc7565b60015b611bb657611b1d613001565b806308c379a003611b795750611b31613023565b80611b3c5750611b7b565b806040517f08c379a0000000000000000000000000000000000000000000000000000000008152600401611b709190611efd565b60405180910390fd5b505b6040517f08c379a0000000000000000000000000000000000000000000000000000000008152600401611bad90613125565b60405180910390fd5b63bc197c8160e01b7bffffffffffffffffffffffffffffffffffffffffffffffffffffffff1916817bffffffffffffffffffffffffffffffffffffffffffffffffffffffff191614611c3d576040517f08c379a0000000000000000000000000000000000000000000000000000000008152600401611c34906131b7565b60405180910390fd5b505b505050505050565b6000808273ffffffffffffffffffffffffffffffffffffffff163b119050919050565b6000604051905090565b600080fd5b600080fd5b600073ffffffffffffffffffffffffffffffffffffffff82169050919050565b6000611ca982611c7e565b9050919050565b611cb981611c9e565b8114611cc457600080fd5b50565b600081359050611cd681611cb0565b92915050565b6000819050919050565b611cef81611cdc565b8114611cfa57600080fd5b50565b600081359050611d0c81611ce6565b92915050565b60008060408385031215611d2957611d28611c74565b5b6000611d3785828601611cc7565b9250506020611d4885828601611cfd565b9150509250929050565b611d5b81611cdc565b82525050565b6000602082019050611d766000830184611d52565b92915050565b60007fffffffff0000000000000000000000000000000000000000000000000000000082169050919050565b611db181611d7c565b8114611dbc57600080fd5b50565b600081359050611dce81611da8565b92915050565b600060208284031215611dea57611de9611c74565b5b6000611df884828501611dbf565b91505092915050565b60008115159050919050565b611e1681611e01565b82525050565b6000602082019050611e316000830184611e0d565b92915050565b600060208284031215611e4d57611e4c611c74565b5b6000611e5b84828501611cfd565b91505092915050565b600081519050919050565b600082825260208201905092915050565b60005b83811015611e9e578082015181840152602081019050611e83565b83811115611ead576000848401525b50505050565b6000601f19601f8301169050919050565b6000611ecf82611e64565b611ed98185611e6f565b9350611ee9818560208601611e80565b611ef281611eb3565b840191505092915050565b60006020820190508181036000830152611f178184611ec4565b905092915050565b60008060408385031215611f3657611f35611c74565b5b6000611f4485828601611cfd565b9250506020611f5585828601611cfd565b9150509250929050565b600080fd5b7f4e487b7100000000000000000000000000000000000000000000000000000000600052604160045260246000fd5b611f9c82611eb3565b810181811067ffffffffffffffff82111715611fbb57611fba611f64565b5b80604052505050565b6000611fce611c6a565b9050611fda8282611f93565b919050565b600067ffffffffffffffff821115611ffa57611ff9611f64565b5b602082029050602081019050919050565b600080fd5b600061202361201e84611fdf565b611fc4565b905080838252602082019050602084028301858111156120465761204561200b565b5b835b8181101561206f578061205b8882611cfd565b845260208401935050602081019050612048565b5050509392505050565b600082601f83011261208e5761208d611f5f565b5b813561209e848260208601612010565b91505092915050565b600080fd5b600067ffffffffffffffff8211156120c7576120c6611f64565b5b6120d082611eb3565b9050602081019050919050565b82818337600083830152505050565b60006120ff6120fa846120ac565b611fc4565b90508281526020810184848401111561211b5761211a6120a7565b5b6121268482856120dd565b509392505050565b600082601f83011261214357612142611f5f565b5b81356121538482602086016120ec565b91505092915050565b600080600080600060a0868803121561217857612177611c74565b5b600061218688828901611cc7565b955050602061219788828901611cc7565b945050604086013567ffffffffffffffff8111156121b8576121b7611c79565b5b6121c488828901612079565b935050606086013567ffffffffffffffff8111156121e5576121e4611c79565b5b6121f188828901612079565b925050608086013567ffffffffffffffff81111561221257612211611c79565b5b61221e8882890161212e565b9150509295509295909350565b600067ffffffffffffffff82111561224657612245611f64565b5b602082029050602081019050919050565b600061226a6122658461222b565b611fc4565b9050808382526020820190506020840283018581111561228d5761228c61200b565b5b835b818110156122b657806122a28882611cc7565b84526020840193505060208101905061228f565b5050509392505050565b600082601f8301126122d5576122d4611f5f565b5b81356122e5848260208601612257565b91505092915050565b6000806040838503121561230557612304611c74565b5b600083013567ffffffffffffffff81111561232357612322611c79565b5b61232f858286016122c0565b925050602083013567ffffffffffffffff8111156123505761234f611c79565b5b61235c85828601612079565b9150509250929050565b600081519050919050565b600082825260208201905092915050565b6000819050602082019050919050565b61239b81611cdc565b82525050565b60006123ad8383612392565b60208301905092915050565b6000602082019050919050565b60006123d182612366565b6123db8185612371565b93506123e683612382565b8060005b838110156124175781516123fe88826123a1565b9750612409836123b9565b9250506001810190506123ea565b5085935050505092915050565b6000602082019050818103600083015261243e81846123c6565b905092915050565b60006020828403121561245c5761245b611c74565b5b600061246a84828501611cc7565b91505092915050565b61247c81611c9e565b82525050565b60006020820190506124976000830184612473565b92915050565b6124a681611e01565b81146124b157600080fd5b50565b6000813590506124c38161249d565b92915050565b600080604083850312156124e0576124df611c74565b5b60006124ee85828601611cc7565b92505060206124ff858286016124b4565b9150509250929050565b600060408201905061251e6000830185611d52565b61252b6020830184611d52565b9392505050565b6000806040838503121561254957612548611c74565b5b600061255785828601611cc7565b925050602061256885828601611cc7565b9150509250929050565b600080600080600060a0868803121561258e5761258d611c74565b5b600061259c88828901611cc7565b95505060206125ad88828901611cc7565b94505060406125be88828901611cfd565b93505060606125cf88828901611cfd565b925050608086013567ffffffffffffffff8111156125f0576125ef611c79565b5b6125fc8882890161212e565b9150509295509295909350565b7f455243313135353a2061646472657373207a65726f206973206e6f742061207660008201527f616c6964206f776e657200000000000000000000000000000000000000000000602082015250565b6000612665602a83611e6f565b915061267082612609565b604082019050919050565b6000602082019050818103600083015261269481612658565b9050919050565b7f4e487b7100000000000000000000000000000000000000000000000000000000600052602260045260246000fd5b600060028204905060018216806126e257607f821691505b6020821081036126f5576126f461269b565b5b50919050565b7f746f206164647265737320697320696e76616c69640000000000000000000000600082015250565b6000612731601583611e6f565b915061273c826126fb565b602082019050919050565b6000602082019050818103600083015261276081612724565b9050919050565b7f616d6f756e7420697320696e76616c6964000000000000000000000000000000600082015250565b600061279d601183611e6f565b91506127a882612767565b602082019050919050565b600060208201905081810360008301526127cc81612790565b9050919050565b7f455243313135353a2063616c6c6572206973206e6f7420746f6b656e206f776e60008201527f6572206e6f7220617070726f7665640000000000000000000000000000000000602082015250565b600061282f602f83611e6f565b915061283a826127d3565b604082019050919050565b6000602082019050818103600083015261285e81612822565b9050919050565b7f455243313135353a206163636f756e747320616e6420696473206c656e67746860008201527f206d69736d617463680000000000000000000000000000000000000000000000602082015250565b60006128c1602983611e6f565b91506128cc82612865565b604082019050919050565b600060208201905081810360008301526128f0816128b4565b9050919050565b7f4e487b7100000000000000000000000000000000000000000000000000000000600052603260045260246000fd5b7f4e487b7100000000000000000000000000000000000000000000000000000000600052601160045260246000fd5b600061296082611cdc565b91507fffffffffffffffffffffffffffffffffffffffffffffffffffffffffffffffff820361299257612991612926565b5b600182019050919050565b7f746f6b656e20696420697320696e76616c696400000000000000000000000000600082015250565b60006129d3601383611e6f565b91506129de8261299d565b602082019050919050565b60006020820190508181036000830152612a02816129c6565b9050919050565b7f616c7265616479206d696e746564000000000000000000000000000000000000600082015250565b6000612a3f600e83611e6f565b9150612a4a82612a09565b602082019050919050565b60006020820190508181036000830152612a6e81612a32565b9050919050565b6000604082019050612a8a6000830185612473565b612a976020830184611d52565b9392505050565b7f4f776e61626c653a206e6577206f776e657220697320746865207a65726f206160008201527f6464726573730000000000000000000000000000000000000000000000000000602082015250565b6000612afa602683611e6f565b9150612b0582612a9e565b604082019050919050565b60006020820190508181036000830152612b2981612aed565b9050919050565b7f4f776e61626c653a2063616c6c6572206973206e6f7420746865206f776e6572600082015250565b6000612b66602083611e6f565b9150612b7182612b30565b602082019050919050565b60006020820190508181036000830152612b9581612b59565b9050919050565b7f455243313135353a206d696e7420746f20746865207a65726f2061646472657360008201527f7300000000000000000000000000000000000000000000000000000000000000602082015250565b6000612bf8602183611e6f565b9150612c0382612b9c565b604082019050919050565b60006020820190508181036000830152612c2781612beb565b9050919050565b6000612c3982611cdc565b9150612c4483611cdc565b9250827fffffffffffffffffffffffffffffffffffffffffffffffffffffffffffffffff03821115612c7957612c78612926565b5b828201905092915050565b7f455243313135353a2069647320616e6420616d6f756e7473206c656e6774682060008201527f6d69736d61746368000000000000000000000000000000000000000000000000602082015250565b6000612ce0602883611e6f565b9150612ceb82612c84565b604082019050919050565b60006020820190508181036000830152612d0f81612cd3565b9050919050565b7f455243313135353a207472616e7366657220746f20746865207a65726f20616460008201527f6472657373000000000000000000000000000000000000000000000000000000602082015250565b6000612d72602583611e6f565b9150612d7d82612d16565b604082019050919050565b60006020820190508181036000830152612da181612d65565b9050919050565b7f455243313135353a20696e73756666696369656e742062616c616e636520666f60008201527f72207472616e7366657200000000000000000000000000000000000000000000602082015250565b6000612e04602a83611e6f565b9150612e0f82612da8565b604082019050919050565b60006020820190508181036000830152612e3381612df7565b9050919050565b60006040820190508181036000830152612e5481856123c6565b90508181036020830152612e6881846123c6565b90509392505050565b7f455243313135353a2073657474696e6720617070726f76616c2073746174757360008201527f20666f722073656c660000000000000000000000000000000000000000000000602082015250565b6000612ecd602983611e6f565b9150612ed882612e71565b604082019050919050565b60006020820190508181036000830152612efc81612ec0565b9050919050565b600081519050919050565b600082825260208201905092915050565b6000612f2a82612f03565b612f348185612f0e565b9350612f44818560208601611e80565b612f4d81611eb3565b840191505092915050565b600060a082019050612f6d6000830188612473565b612f7a6020830187612473565b612f876040830186611d52565b612f946060830185611d52565b8181036080830152612fa68184612f1f565b90509695505050505050565b600081519050612fc181611da8565b92915050565b600060208284031215612fdd57612fdc611c74565b5b6000612feb84828501612fb2565b91505092915050565b60008160e01c9050919050565b600060033d11156130205760046000803e61301d600051612ff4565b90505b90565b600060443d106130b057613035611c6a565b60043d036004823e80513d602482011167ffffffffffffffff8211171561305d5750506130b0565b808201805167ffffffffffffffff81111561307b57505050506130b0565b80602083010160043d0385018111156130985750505050506130b0565b6130a782602001850186611f93565b82955050505050505b90565b7f455243313135353a207472616e7366657220746f206e6f6e204552433131353560008201527f526563656976657220696d706c656d656e746572000000000000000000000000602082015250565b600061310f603483611e6f565b915061311a826130b3565b604082019050919050565b6000602082019050818103600083015261313e81613102565b9050919050565b7f455243313135353a204552433131353552656365697665722072656a6563746560008201527f6420746f6b656e73000000000000000000000000000000000000000000000000602082015250565b60006131a1602883611e6f565b91506131ac82613145565b604082019050919050565b600060208201905081810360008301526131d081613194565b9050919050565b600060a0820190506131ec6000830188612473565b6131f96020830187612473565b818103604083015261320b81866123c6565b9050818103606083015261321f81856123c6565b905081810360808301526132338184612f1f565b9050969550505050505056fea2646970667358221220667d7e9818dac678e39476fcf9538eb85d648afd22240512fc785f0607a8d50664736f6c634300080d0033697066733a2f2f62616679626569646668336d7169616f327534326e33737033656935666e7961677a746d7666743777336d65746d6c61647370736b716b377a6f712f7b69647d2e6a736f6e",
  "immutableReferences": {},
  "source": "// SPDX-License-Identifier: MIT\npragma solidity >=0.4.25 <0.9.0;\n\nimport \"@openzeppelin/contracts/token/ERC1155/ERC1155.sol\";\nimport \"@openzeppelin/contracts/access/Ownable.sol\";\nimport \"@openzeppelin/contracts/utils/Counters.sol\";\nimport \"./TrankersToken.sol\";\n\ncontract TrankersInventory is ERC1155, Ownable {\n    using Counters for Counters.Counter;\n    Counters.Counter private _tokenIds;\n\n    mapping(uint256 => uint256) private _tokenPrices;\n    mapping(uint256 => uint256) private _tokenPricesInSPT;\n\n    address token;\n\n    constructor(address token_)\n        ERC1155(\n            \"ipfs://bafybeidfh3mqiao2u42n3sp3ei5fnyagztmvft7w3metmladspskqk7zoq/{id}.json\"\n        )\n    {\n        token = token_;\n    }\n\n    function updateToken(address token_) public onlyOwner {\n        token = token_;\n    }\n\n    function mint(uint256 price, uint256 priceInSPT) public onlyOwner {\n        require(msg.sender != address(0), \"to address is invalid\");\n        require(price > 0, \"amount is invalid\");\n        _tokenIds.increment();\n        _tokenPrices[_tokenIds.current()] = price;\n        _tokenPricesInSPT[_tokenIds.current()] = priceInSPT;\n        _mint(msg.sender, _tokenIds.current(), 1, \"\");\n    }\n\n    function mint(uint256 token_id) public payable {\n        require(msg.sender != address(0), \"to address is invalid\");\n        require(token_id > 0, \"token id is invalid\");\n        require(balanceOf(msg.sender, token_id) == 0, \"already minted\");\n        if (_tokenPrices[token_id] == msg.value) {\n            _mint(msg.sender, token_id, 1, \"\");\n        } else {\n            TrankersToken(token).burnFrom(\n                msg.sender,\n                _tokenPricesInSPT[token_id]\n            );\n            _mint(msg.sender, token_id, 1, \"\");\n        }\n    }\n\n    function getPrice(uint256 token_id) public view returns (uint256, uint256) {\n        return (_tokenPrices[token_id], _tokenPricesInSPT[token_id]);\n    }\n}\n",
  "sourcePath": "/Users/maadhav/Documents/web3Projects/spaceoz-evmos/contracts/TrankersInventory.sol",
  "compiler": {
    "name": "solc",
    "version": "0.8.13+commit.abaa5c0e.Emscripten.clang"
  },
  "schemaVersion": "3.4.8",
  "updatedAt": "2022-09-19T05:12:05.578Z",
  "devdoc": {
    "kind": "dev",
    "methods": {
      "balanceOf(address,uint256)": {
        "details": "See {IERC1155-balanceOf}. Requirements: - `account` cannot be the zero address."
      },
      "balanceOfBatch(address[],uint256[])": {
        "details": "See {IERC1155-balanceOfBatch}. Requirements: - `accounts` and `ids` must have the same length."
      },
      "isApprovedForAll(address,address)": {
        "details": "See {IERC1155-isApprovedForAll}."
      },
      "owner()": {
        "details": "Returns the address of the current owner."
      },
      "renounceOwnership()": {
        "details": "Leaves the contract without owner. It will not be possible to call `onlyOwner` functions anymore. Can only be called by the current owner. NOTE: Renouncing ownership will leave the contract without an owner, thereby removing any functionality that is only available to the owner."
      },
      "safeBatchTransferFrom(address,address,uint256[],uint256[],bytes)": {
        "details": "See {IERC1155-safeBatchTransferFrom}."
      },
      "safeTransferFrom(address,address,uint256,uint256,bytes)": {
        "details": "See {IERC1155-safeTransferFrom}."
      },
      "setApprovalForAll(address,bool)": {
        "details": "See {IERC1155-setApprovalForAll}."
      },
      "supportsInterface(bytes4)": {
        "details": "See {IERC165-supportsInterface}."
      },
      "transferOwnership(address)": {
        "details": "Transfers ownership of the contract to a new account (`newOwner`). Can only be called by the current owner."
      },
      "uri(uint256)": {
        "details": "See {IERC1155MetadataURI-uri}. This implementation returns the same URI for *all* token types. It relies on the token type ID substitution mechanism https://eips.ethereum.org/EIPS/eip-1155#metadata[defined in the EIP]. Clients calling this function must replace the `\\{id\\}` substring with the actual token type ID."
      }
    },
    "version": 1
  },
  "userdoc": {
    "kind": "user",
    "methods": {},
    "version": 1
  }
}